{
  "_format": "hh-sol-artifact-1",
  "contractName": "ProjectAdmin",
  "sourceName": "contracts/ProjectAdmin.sol",
  "abi": [
    {
      "inputs": [],
      "stateMutability": "nonpayable",
      "type": "constructor"
    },
    {
      "inputs": [
        {
          "internalType": "address",
          "name": "admin",
          "type": "address"
        }
      ],
      "name": "addAdmin",
      "outputs": [
        {
          "internalType": "bool",
          "name": "",
          "type": "bool"
        }
      ],
      "stateMutability": "nonpayable",
      "type": "function"
    },
    {
      "inputs": [
        {
          "internalType": "address",
          "name": "project",
          "type": "address"
        }
      ],
      "name": "addProject",
      "outputs": [
        {
          "internalType": "bool",
          "name": "",
          "type": "bool"
        }
      ],
      "stateMutability": "nonpayable",
      "type": "function"
    },
    {
      "inputs": [
        {
          "internalType": "address",
          "name": "admin",
          "type": "address"
        }
      ],
      "name": "removeAdmin",
      "outputs": [
        {
          "internalType": "bool",
          "name": "",
          "type": "bool"
        }
      ],
      "stateMutability": "nonpayable",
      "type": "function"
    },
    {
      "inputs": [
        {
          "internalType": "address",
          "name": "project",
          "type": "address"
        }
      ],
      "name": "removeProject",
      "outputs": [
        {
          "internalType": "bool",
          "name": "",
          "type": "bool"
        }
      ],
      "stateMutability": "nonpayable",
      "type": "function"
    }
  ],
  "bytecode": "0x608060405234801561001057600080fd5b5060016000803373ffffffffffffffffffffffffffffffffffffffff1673ffffffffffffffffffffffffffffffffffffffff16815260200190815260200160002060006101000a81548160ff02191690831515021790555061085d806100776000396000f3fe608060405234801561001057600080fd5b506004361061004c5760003560e01c80630c0ad299146100515780631785f53c1461008157806370480275146100b15780637c56b798146100e1575b600080fd5b61006b6004803603810190610066919061062a565b610111565b60405161007891906106cb565b60405180910390f35b61009b6004803603810190610096919061062a565b6101ff565b6040516100a891906106cb565b60405180910390f35b6100cb60048036038101906100c6919061062a565b6103cb565b6040516100d891906106cb565b60405180910390f35b6100fb60048036038101906100f6919061062a565b610528565b60405161010891906106cb565b60405180910390f35b60008060003373ffffffffffffffffffffffffffffffffffffffff1673ffffffffffffffffffffffffffffffffffffffff16815260200190815260200160002060009054906101000a900460ff1661019e576040517f08c379a000000000000000000000000000000000000000000000000000000000815260040161019590610726565b60405180910390fd5b6000600160008473ffffffffffffffffffffffffffffffffffffffff1673ffffffffffffffffffffffffffffffffffffffff16815260200190815260200160002060006101000a81548160ff02191690831515021790555060019050919050565b60008060003373ffffffffffffffffffffffffffffffffffffffff1673ffffffffffffffffffffffffffffffffffffffff16815260200190815260200160002060009054906101000a900460ff1661028c576040517f08c379a000000000000000000000000000000000000000000000000000000000815260040161028390610726565b60405180910390fd5b600073ffffffffffffffffffffffffffffffffffffffff168273ffffffffffffffffffffffffffffffffffffffff1614156102fc576040517f08c379a00000000000000000000000000000000000000000000000000000000081526004016102f390610706565b60405180910390fd5b8173ffffffffffffffffffffffffffffffffffffffff163373ffffffffffffffffffffffffffffffffffffffff16141561036b576040517f08c379a0000000000000000000000000000000000000000000000000000000008152600401610362906106e6565b60405180910390fd5b60008060008473ffffffffffffffffffffffffffffffffffffffff1673ffffffffffffffffffffffffffffffffffffffff16815260200190815260200160002060006101000a81548160ff02191690831515021790555060019050919050565b60008060003373ffffffffffffffffffffffffffffffffffffffff1673ffffffffffffffffffffffffffffffffffffffff16815260200190815260200160002060009054906101000a900460ff16610458576040517f08c379a000000000000000000000000000000000000000000000000000000000815260040161044f90610726565b60405180910390fd5b600073ffffffffffffffffffffffffffffffffffffffff168273ffffffffffffffffffffffffffffffffffffffff1614156104c8576040517f08c379a00000000000000000000000000000000000000000000000000000000081526004016104bf90610706565b60405180910390fd5b60016000808473ffffffffffffffffffffffffffffffffffffffff1673ffffffffffffffffffffffffffffffffffffffff16815260200190815260200160002060006101000a81548160ff02191690831515021790555060019050919050565b60008060003373ffffffffffffffffffffffffffffffffffffffff1673ffffffffffffffffffffffffffffffffffffffff16815260200190815260200160002060009054906101000a900460ff166105b5576040517f08c379a00000000000000000000000000000000000000000000000000000000081526004016105ac90610726565b60405180910390fd5b60018060008473ffffffffffffffffffffffffffffffffffffffff1673ffffffffffffffffffffffffffffffffffffffff16815260200190815260200160002060006101000a81548160ff02191690831515021790555060019050919050565b60008135905061062481610810565b92915050565b60006020828403121561063c57600080fd5b600061064a84828501610615565b91505092915050565b61065c81610769565b82525050565b600061066f601583610746565b915061067a82610795565b602082019050919050565b6000610692601083610746565b915061069d826107be565b602082019050919050565b60006106b5600e83610746565b91506106c0826107e7565b602082019050919050565b60006020820190506106e06000830184610653565b92915050565b600060208201905081810360008301526106ff81610662565b9050919050565b6000602082019050818103600083015261071f81610685565b9050919050565b6000602082019050818103600083015261073f816106a8565b9050919050565b600082825260208201905092915050565b600061076282610775565b9050919050565b60008115159050919050565b600073ffffffffffffffffffffffffffffffffffffffff82169050919050565b7f61646d696e43616e6e6f7452656d6f766553656c660000000000000000000000600082015250565b7f7a65726f416464726573734572726f7200000000000000000000000000000000600082015250565b7f6f6e6c7941646d696e4572726f72000000000000000000000000000000000000600082015250565b61081981610757565b811461082457600080fd5b5056fea26469706673582212203be943e7ad60377cfbb05c7da6071b0057675f9ccc43abdfd41e2e36216e3c1564736f6c63430008040033",
  "linkReferences": {},
  "deployedLinkReferences": {}
}