{
  "_format": "hh-sol-artifact-1",
  "contractName": "Project",
  "sourceName": "contracts/Project.sol",
  "abi": [
    {
      "inputs": [
        {
          "internalType": "address payable",
          "name": "owner",
          "type": "address"
        },
        {
          "internalType": "string",
          "name": "dataURI",
          "type": "string"
        },
        {
          "internalType": "uint256[]",
          "name": "deadlines",
          "type": "uint256[]"
        },
        {
          "internalType": "uint256[]",
          "name": "targetAmounts",
          "type": "uint256[]"
        },
        {
          "internalType": "address payable[]",
          "name": "walletAddresses",
          "type": "address[]"
        }
      ],
      "stateMutability": "nonpayable",
      "type": "constructor"
    },
    {
      "inputs": [],
      "name": "_availableAmount",
      "outputs": [
        {
          "internalType": "uint256",
          "name": "",
          "type": "uint256"
        }
      ],
      "stateMutability": "view",
      "type": "function"
    },
    {
      "inputs": [],
      "name": "_dataURI",
      "outputs": [
        {
          "internalType": "string",
          "name": "",
          "type": "string"
        }
      ],
      "stateMutability": "view",
      "type": "function"
    },
    {
      "inputs": [],
      "name": "_deadline",
      "outputs": [
        {
          "internalType": "uint256",
          "name": "",
          "type": "uint256"
        }
      ],
      "stateMutability": "view",
      "type": "function"
    },
    {
      "inputs": [],
      "name": "_owner",
      "outputs": [
        {
          "internalType": "address payable",
          "name": "",
          "type": "address"
        }
      ],
      "stateMutability": "view",
      "type": "function"
    },
    {
      "inputs": [
        {
          "internalType": "uint256",
          "name": "",
          "type": "uint256"
        }
      ],
      "name": "_progressURIs",
      "outputs": [
        {
          "internalType": "string",
          "name": "",
          "type": "string"
        }
      ],
      "stateMutability": "view",
      "type": "function"
    },
    {
      "inputs": [],
      "name": "_projectState",
      "outputs": [
        {
          "internalType": "enum Project.ProjectState",
          "name": "",
          "type": "uint8"
        }
      ],
      "stateMutability": "view",
      "type": "function"
    },
    {
      "inputs": [],
      "name": "_totalRaised",
      "outputs": [
        {
          "internalType": "uint256",
          "name": "",
          "type": "uint256"
        }
      ],
      "stateMutability": "view",
      "type": "function"
    },
    {
      "inputs": [],
      "name": "_totalTargetAmount",
      "outputs": [
        {
          "internalType": "uint256",
          "name": "",
          "type": "uint256"
        }
      ],
      "stateMutability": "view",
      "type": "function"
    },
    {
      "inputs": [
        {
          "internalType": "string",
          "name": "uri",
          "type": "string"
        }
      ],
      "name": "addProgress",
      "outputs": [],
      "stateMutability": "nonpayable",
      "type": "function"
    },
    {
      "inputs": [],
      "name": "claimExcess",
      "outputs": [],
      "stateMutability": "payable",
      "type": "function"
    },
    {
      "inputs": [],
      "name": "donate",
      "outputs": [],
      "stateMutability": "payable",
      "type": "function"
    },
    {
      "inputs": [],
      "name": "forceWithdraw",
      "outputs": [],
      "stateMutability": "payable",
      "type": "function"
    },
    {
      "inputs": [],
      "name": "progressCount",
      "outputs": [
        {
          "internalType": "uint256",
          "name": "",
          "type": "uint256"
        }
      ],
      "stateMutability": "view",
      "type": "function"
    },
    {
      "inputs": [],
      "name": "refund",
      "outputs": [],
      "stateMutability": "payable",
      "type": "function"
    },
    {
      "inputs": [],
      "name": "start",
      "outputs": [],
      "stateMutability": "nonpayable",
      "type": "function"
    },
    {
      "inputs": [],
      "name": "stop",
      "outputs": [],
      "stateMutability": "nonpayable",
      "type": "function"
    },
    {
      "inputs": [],
      "name": "undoLastProgress",
      "outputs": [],
      "stateMutability": "nonpayable",
      "type": "function"
    },
    {
      "inputs": [],
      "name": "withdraw",
      "outputs": [],
      "stateMutability": "payable",
      "type": "function"
    },
    {
      "stateMutability": "payable",
      "type": "receive"
    }
  ],
  "bytecode": "0x60806040523480156200001157600080fd5b5060405162002e4c38038062002e4c833981810160405281019062000037919062000696565b84600460006101000a81548173ffffffffffffffffffffffffffffffffffffffff021916908373ffffffffffffffffffffffffffffffffffffffff1602179055506000600360006101000a81548160ff021916908360ff1602179055508360099080519060200190620000ac92919062000402565b5033600360046101000a81548173ffffffffffffffffffffffffffffffffffffffff021916908373ffffffffffffffffffffffffffffffffffffffff160217905550620001018282856200010c60201b60201c565b505050505062000b42565b600083519050825160ff168160ff161480156200012f5750815160ff168160ff16145b62000171576040517f08c379a00000000000000000000000000000000000000000000000000000000081526004016200016890620007a3565b60405180910390fd5b600080600090505b8260ff168160ff16101562000325576000868260ff1681518110620001c7577f4e487b7100000000000000000000000000000000000000000000000000000000600052603260045260246000fd5b602002602001015190506040518060600160405280828152602001868460ff16815181106200021f577f4e487b7100000000000000000000000000000000000000000000000000000000600052603260045260246000fd5b60200260200101518152602001878460ff168151811062000269577f4e487b7100000000000000000000000000000000000000000000000000000000600052603260045260246000fd5b602002602001015173ffffffffffffffffffffffffffffffffffffffff16815250600260008460ff168152602001908152602001600020600082015181600001556020820151816001015560408201518160020160006101000a81548173ffffffffffffffffffffffffffffffffffffffff021916908373ffffffffffffffffffffffffffffffffffffffff16021790555090505080836200030c919062000893565b92505080806200031c9062000a18565b91505062000179565b50600182620003359190620008f0565b600360016101000a81548160ff021916908360ff1602179055508060078190555062000367836200037460201b60201c565b6008819055505050505050565b6000806000905060005b83518160ff161015620003f8576000848260ff1681518110620003ca577f4e487b7100000000000000000000000000000000000000000000000000000000600052603260045260246000fd5b6020026020010151905082811115620003e1578092505b508080620003ef9062000a18565b9150506200037e565b5080915050919050565b8280546200041090620009ac565b90600052602060002090601f01602090048101928262000434576000855562000480565b82601f106200044f57805160ff191683800117855562000480565b8280016001018555821562000480579182015b828111156200047f57825182559160200191906001019062000462565b5b5090506200048f919062000493565b5090565b5b80821115620004ae57600081600090555060010162000494565b5090565b6000620004c9620004c384620007ee565b620007c5565b90508083825260208201905082856020860282011115620004e957600080fd5b60005b858110156200051d5781620005028882620005e1565b845260208401935060208301925050600181019050620004ec565b5050509392505050565b60006200053e62000538846200081d565b620007c5565b905080838252602082019050828560208602820111156200055e57600080fd5b60005b858110156200059257816200057788826200067f565b84526020840193506020830192505060018101905062000561565b5050509392505050565b6000620005b3620005ad846200084c565b620007c5565b905082815260208101848484011115620005cc57600080fd5b620005d984828562000976565b509392505050565b600081519050620005f28162000b0e565b92915050565b600082601f8301126200060a57600080fd5b81516200061c848260208601620004b2565b91505092915050565b600082601f8301126200063757600080fd5b81516200064984826020860162000527565b91505092915050565b600082601f8301126200066457600080fd5b8151620006768482602086016200059c565b91505092915050565b600081519050620006908162000b28565b92915050565b600080600080600060a08688031215620006af57600080fd5b6000620006bf88828901620005e1565b955050602086015167ffffffffffffffff811115620006dd57600080fd5b620006eb8882890162000652565b945050604086015167ffffffffffffffff8111156200070957600080fd5b620007178882890162000625565b935050606086015167ffffffffffffffff8111156200073557600080fd5b620007438882890162000625565b925050608086015167ffffffffffffffff8111156200076157600080fd5b6200076f88828901620005f8565b9150509295509295909350565b60006200078b60198362000882565b9150620007988262000ae5565b602082019050919050565b60006020820190508181036000830152620007be816200077c565b9050919050565b6000620007d1620007e4565b9050620007df8282620009e2565b919050565b6000604051905090565b600067ffffffffffffffff8211156200080c576200080b62000aa5565b5b602082029050602081019050919050565b600067ffffffffffffffff8211156200083b576200083a62000aa5565b5b602082029050602081019050919050565b600067ffffffffffffffff8211156200086a576200086962000aa5565b5b620008758262000ad4565b9050602081019050919050565b600082825260208201905092915050565b6000620008a0826200095f565b9150620008ad836200095f565b9250827fffffffffffffffffffffffffffffffffffffffffffffffffffffffffffffffff03821115620008e557620008e462000a47565b5b828201905092915050565b6000620008fd8262000969565b91506200090a8362000969565b92508282101562000920576200091f62000a47565b5b828203905092915050565b600062000938826200093f565b9050919050565b600073ffffffffffffffffffffffffffffffffffffffff82169050919050565b6000819050919050565b600060ff82169050919050565b60005b838110156200099657808201518184015260208101905062000979565b83811115620009a6576000848401525b50505050565b60006002820490506001821680620009c557607f821691505b60208210811415620009dc57620009db62000a76565b5b50919050565b620009ed8262000ad4565b810181811067ffffffffffffffff8211171562000a0f5762000a0e62000aa5565b5b80604052505050565b600062000a258262000969565b915060ff82141562000a3c5762000a3b62000a47565b5b600182019050919050565b7f4e487b7100000000000000000000000000000000000000000000000000000000600052601160045260246000fd5b7f4e487b7100000000000000000000000000000000000000000000000000000000600052602260045260246000fd5b7f4e487b7100000000000000000000000000000000000000000000000000000000600052604160045260246000fd5b6000601f19601f8301169050919050565b7f7374616765734c656e6774684d69736d617463684572726f7200000000000000600082015250565b62000b19816200092b565b811462000b2557600080fd5b50565b62000b33816200095f565b811462000b3f57600080fd5b50565b6122fa8062000b526000396000f3fe60806040526004361061010d5760003560e01c80637be80b3911610095578063b2bdfa7b11610064578063b2bdfa7b146102b6578063be9a6555146102e1578063c12d51ad146102f8578063c9cbb9bf14610321578063ed88c68e1461034c5761011c565b80637be80b39146102605780638d78bf7e1461026a5780639e9c8b5a14610274578063aea7bd2b1461028b5761011c565b80633be32f32116100dc5780633be32f32146101b95780633ccfd60b146101e457806351a7c985146101ee578063590e1ae314610219578063706308d7146102235761011c565b806307da68f5146101215780631b8db774146101385780632fe8430c14610163578063324e1f511461018e5761011c565b3661011c5761011a610356565b005b600080fd5b34801561012d57600080fd5b506101366104f8565b005b34801561014457600080fd5b5061014d6106fb565b60405161015a9190611dff565b60405180910390f35b34801561016f57600080fd5b50610178610701565b6040516101859190611dff565b60405180910390f35b34801561019a57600080fd5b506101a3610707565b6040516101b09190611dff565b60405180910390f35b3480156101c557600080fd5b506101ce61070d565b6040516101db9190611dff565b60405180910390f35b6101ec61071a565b005b3480156101fa57600080fd5b50610203610a16565b6040516102109190611dff565b60405180910390f35b610221610a1c565b005b34801561022f57600080fd5b5061024a6004803603810190610245919061196e565b610d43565b6040516102579190611c1d565b60405180910390f35b610268610def565b005b6102726110f2565b005b34801561028057600080fd5b506102896113b6565b005b34801561029757600080fd5b506102a061149e565b6040516102ad9190611c02565b60405180910390f35b3480156102c257600080fd5b506102cb6114b1565b6040516102d89190611be7565b60405180910390f35b3480156102ed57600080fd5b506102f66114d7565b005b34801561030457600080fd5b5061031f600480360381019061031a9190611929565b611687565b005b34801561032d57600080fd5b50610336611759565b6040516103439190611c1d565b60405180910390f35b610354610356565b005b60006002811115610390577f4e487b7100000000000000000000000000000000000000000000000000000000600052602160045260246000fd5b600360029054906101000a900460ff1660028111156103d8577f4e487b7100000000000000000000000000000000000000000000000000000000600052602160045260246000fd5b14610418576040517f08c379a000000000000000000000000000000000000000000000000000000000815260040161040f90611d7f565b60405180910390fd5b42600854118061042a57506000600854145b610469576040517f08c379a000000000000000000000000000000000000000000000000000000000815260040161046090611ddf565b60405180910390fd5b600034905080600660008282546104809190611e36565b9250508190555080600560008282546104999190611e36565b92505081905550806000803373ffffffffffffffffffffffffffffffffffffffff1673ffffffffffffffffffffffffffffffffffffffff16815260200190815260200160002060008282546104ee9190611e36565b9250508190555050565b600360049054906101000a900473ffffffffffffffffffffffffffffffffffffffff1673ffffffffffffffffffffffffffffffffffffffff163373ffffffffffffffffffffffffffffffffffffffff1614610588576040517f08c379a000000000000000000000000000000000000000000000000000000000815260040161057f90611d1f565b60405180910390fd5b6002808111156105c1577f4e487b7100000000000000000000000000000000000000000000000000000000600052602160045260246000fd5b600360029054906101000a900460ff166002811115610609577f4e487b7100000000000000000000000000000000000000000000000000000000600052602160045260246000fd5b141561064a576040517f08c379a000000000000000000000000000000000000000000000000000000000815260040161064190611c9f565b60405180910390fd5b600360029054906101000a900460ff166003806101000a81548160ff021916908360028111156106a3577f4e487b7100000000000000000000000000000000000000000000000000000000600052602160045260246000fd5b02179055506002600360026101000a81548160ff021916908360028111156106f4577f4e487b7100000000000000000000000000000000000000000000000000000000600052602160045260246000fd5b0217905550565b60085481565b60075481565b60055481565b6000600180549050905090565b60006002811115610754577f4e487b7100000000000000000000000000000000000000000000000000000000600052602160045260246000fd5b600360029054906101000a900460ff16600281111561079c577f4e487b7100000000000000000000000000000000000000000000000000000000600052602160045260246000fd5b146107dc576040517f08c379a00000000000000000000000000000000000000000000000000000000081526004016107d390611d7f565b60405180910390fd5b600360019054906101000a900460ff1660ff16600360009054906101000a900460ff1660ff161115610843576040517f08c379a000000000000000000000000000000000000000000000000000000000815260040161083a90611c5f565b60405180910390fd5b600060026000600360009054906101000a900460ff1660ff16815260200190815260200160002060405180606001604052908160008201548152602001600182015481526020016002820160009054906101000a900473ffffffffffffffffffffffffffffffffffffffff1673ffffffffffffffffffffffffffffffffffffffff1673ffffffffffffffffffffffffffffffffffffffff168152505090508060200151421015610928576040517f08c379a000000000000000000000000000000000000000000000000000000000815260040161091f90611d3f565b60405180910390fd5b600081600001519050806005541015610976576040517f08c379a000000000000000000000000000000000000000000000000000000000815260040161096d90611c7f565b60405180910390fd5b80600560008282546109889190611e8c565b925050819055506003600081819054906101000a900460ff16809291906109ae90611f93565b91906101000a81548160ff021916908360ff16021790555050816040015173ffffffffffffffffffffffffffffffffffffffff166108fc829081150290604051600060405180830381858888f19350505050158015610a11573d6000803e3d6000fd5b505050565b60065481565b60006002811115610a56577f4e487b7100000000000000000000000000000000000000000000000000000000600052602160045260246000fd5b600360029054906101000a900460ff166002811115610a9e577f4e487b7100000000000000000000000000000000000000000000000000000000600052602160045260246000fd5b1415610adf576040517f08c379a0000000000000000000000000000000000000000000000000000000008152600401610ad690611d5f565b60405180910390fd5b6000339050600073ffffffffffffffffffffffffffffffffffffffff168173ffffffffffffffffffffffffffffffffffffffff161415610b54576040517f08c379a0000000000000000000000000000000000000000000000000000000008152600401610b4b90611cff565b60405180910390fd5b60008060008373ffffffffffffffffffffffffffffffffffffffff1673ffffffffffffffffffffffffffffffffffffffff16815260200190815260200160002054905060008111610bda576040517f08c379a0000000000000000000000000000000000000000000000000000000008152600401610bd190611d9f565b60405180910390fd5b600060055411610c1f576040517f08c379a0000000000000000000000000000000000000000000000000000000008152600401610c1690611cbf565b60405180910390fd5b6000819050600554821115610c97576005546000808573ffffffffffffffffffffffffffffffffffffffff1673ffffffffffffffffffffffffffffffffffffffff1681526020019081526020016000206000828254610c7e9190611e8c565b9250508190555060055490506000600581905550610cf5565b60008060008573ffffffffffffffffffffffffffffffffffffffff1673ffffffffffffffffffffffffffffffffffffffff168152602001908152602001600020819055508160056000828254610ced9190611e8c565b925050819055505b8273ffffffffffffffffffffffffffffffffffffffff166108fc6005549081150290604051600060405180830381858888f19350505050158015610d3d573d6000803e3d6000fd5b50505050565b60018181548110610d5357600080fd5b906000526020600020016000915090508054610d6e90611f61565b80601f0160208091040260200160405190810160405280929190818152602001828054610d9a90611f61565b8015610de75780601f10610dbc57610100808354040283529160200191610de7565b820191906000526020600020905b815481529060010190602001808311610dca57829003601f168201915b505050505081565b60006002811115610e29577f4e487b7100000000000000000000000000000000000000000000000000000000600052602160045260246000fd5b600360029054906101000a900460ff166002811115610e71577f4e487b7100000000000000000000000000000000000000000000000000000000600052602160045260246000fd5b14610eb1576040517f08c379a0000000000000000000000000000000000000000000000000000000008152600401610ea890611d7f565b60405180910390fd5b600360019054906101000a900460ff1660ff16600360009054906101000a900460ff1660ff161115610f18576040517f08c379a0000000000000000000000000000000000000000000000000000000008152600401610f0f90611c5f565b60405180910390fd5b600854421015610f5d576040517f08c379a0000000000000000000000000000000000000000000000000000000008152600401610f5490611d3f565b60405180910390fd5b600060026000600360009054906101000a900460ff1660ff16815260200190815260200160002060405180606001604052908160008201548152602001600182015481526020016002820160009054906101000a900473ffffffffffffffffffffffffffffffffffffffff1673ffffffffffffffffffffffffffffffffffffffff1673ffffffffffffffffffffffffffffffffffffffff168152505090506000816000015190508060055410611048576040517f08c379a000000000000000000000000000000000000000000000000000000000815260040161103f90611cbf565b60405180910390fd5b60006005819055506001600360026101000a81548160ff0219169083600281111561109c577f4e487b7100000000000000000000000000000000000000000000000000000000600052602160045260246000fd5b0217905550816040015173ffffffffffffffffffffffffffffffffffffffff166108fc6005549081150290604051600060405180830381858888f193505050501580156110ed573d6000803e3d6000fd5b505050565b6000600281111561112c577f4e487b7100000000000000000000000000000000000000000000000000000000600052602160045260246000fd5b600360029054906101000a900460ff166002811115611174577f4e487b7100000000000000000000000000000000000000000000000000000000600052602160045260246000fd5b146111b4576040517f08c379a00000000000000000000000000000000000000000000000000000000081526004016111ab90611d7f565b60405180910390fd5b3373ffffffffffffffffffffffffffffffffffffffff16600460009054906101000a900473ffffffffffffffffffffffffffffffffffffffff1673ffffffffffffffffffffffffffffffffffffffff1614611244576040517f08c379a000000000000000000000000000000000000000000000000000000000815260040161123b90611dbf565b60405180910390fd5b600360019054906101000a900460ff1660ff16600360009054906101000a900460ff1660ff16116112aa576040517f08c379a00000000000000000000000000000000000000000000000000000000081526004016112a190611cdf565b60405180910390fd5b600754600654116112f0576040517f08c379a00000000000000000000000000000000000000000000000000000000081526004016112e790611c7f565b60405180910390fd5b60006005819055506001600360026101000a81548160ff02191690836002811115611344577f4e487b7100000000000000000000000000000000000000000000000000000000600052602160045260246000fd5b0217905550600460009054906101000a900473ffffffffffffffffffffffffffffffffffffffff1673ffffffffffffffffffffffffffffffffffffffff166108fc6005549081150290604051600060405180830381858888f193505050501580156113b3573d6000803e3d6000fd5b50565b3373ffffffffffffffffffffffffffffffffffffffff16600460009054906101000a900473ffffffffffffffffffffffffffffffffffffffff1673ffffffffffffffffffffffffffffffffffffffff1614611446576040517f08c379a000000000000000000000000000000000000000000000000000000000815260040161143d90611dbf565b60405180910390fd5b600180548061147e577f4e487b7100000000000000000000000000000000000000000000000000000000600052603160045260246000fd5b60019003818190600052602060002001600061149a91906117e7565b9055565b600360029054906101000a900460ff1681565b600460009054906101000a900473ffffffffffffffffffffffffffffffffffffffff1681565b600360049054906101000a900473ffffffffffffffffffffffffffffffffffffffff1673ffffffffffffffffffffffffffffffffffffffff163373ffffffffffffffffffffffffffffffffffffffff1614611567576040517f08c379a000000000000000000000000000000000000000000000000000000000815260040161155e90611d1f565b60405180910390fd5b6002808111156115a0577f4e487b7100000000000000000000000000000000000000000000000000000000600052602160045260246000fd5b600360029054906101000a900460ff1660028111156115e8577f4e487b7100000000000000000000000000000000000000000000000000000000600052602160045260246000fd5b14611628576040517f08c379a000000000000000000000000000000000000000000000000000000000815260040161161f90611c3f565b60405180910390fd5b60038054906101000a900460ff16600360026101000a81548160ff02191690836002811115611680577f4e487b7100000000000000000000000000000000000000000000000000000000600052602160045260246000fd5b0217905550565b3373ffffffffffffffffffffffffffffffffffffffff16600460009054906101000a900473ffffffffffffffffffffffffffffffffffffffff1673ffffffffffffffffffffffffffffffffffffffff1614611717576040517f08c379a000000000000000000000000000000000000000000000000000000000815260040161170e90611dbf565b60405180910390fd5b6001828290918060018154018082558091505060019003906000526020600020016000909192909192909192909192509190611754929190611827565b505050565b6009805461176690611f61565b80601f016020809104026020016040519081016040528092919081815260200182805461179290611f61565b80156117df5780601f106117b4576101008083540402835291602001916117df565b820191906000526020600020905b8154815290600101906020018083116117c257829003601f168201915b505050505081565b5080546117f390611f61565b6000825580601f106118055750611824565b601f01602090049060005260206000209081019061182391906118ad565b5b50565b82805461183390611f61565b90600052602060002090601f016020900481019282611855576000855561189c565b82601f1061186e57803560ff191683800117855561189c565b8280016001018555821561189c579182015b8281111561189b578235825591602001919060010190611880565b5b5090506118a991906118ad565b5090565b5b808211156118c65760008160009055506001016118ae565b5090565b60008083601f8401126118dc57600080fd5b8235905067ffffffffffffffff8111156118f557600080fd5b60208301915083600182028301111561190d57600080fd5b9250929050565b600081359050611923816122ad565b92915050565b6000806020838503121561193c57600080fd5b600083013567ffffffffffffffff81111561195657600080fd5b611962858286016118ca565b92509250509250929050565b60006020828403121561198057600080fd5b600061198e84828501611914565b91505092915050565b6119a081611ec0565b82525050565b6119af81611f1c565b82525050565b60006119c082611e1a565b6119ca8185611e25565b93506119da818560208601611f2e565b6119e38161204a565b840191505092915050565b60006119fb601183611e25565b9150611a068261205b565b602082019050919050565b6000611a1e601c83611e25565b9150611a2982612084565b602082019050919050565b6000611a41601583611e25565b9150611a4c826120ad565b602082019050919050565b6000611a64601083611e25565b9150611a6f826120d6565b602082019050919050565b6000611a87601383611e25565b9150611a92826120ff565b602082019050919050565b6000611aaa601f83611e25565b9150611ab582612128565b602082019050919050565b6000611acd601083611e25565b9150611ad882612151565b602082019050919050565b6000611af0601183611e25565b9150611afb8261217a565b602082019050919050565b6000611b13601883611e25565b9150611b1e826121a3565b602082019050919050565b6000611b36601283611e25565b9150611b41826121cc565b602082019050919050565b6000611b59601583611e25565b9150611b64826121f5565b602082019050919050565b6000611b7c600e83611e25565b9150611b878261221e565b602082019050919050565b6000611b9f600e83611e25565b9150611baa82612247565b602082019050919050565b6000611bc2600c83611e25565b9150611bcd82612270565b602082019050919050565b611be181611f05565b82525050565b6000602082019050611bfc6000830184611997565b92915050565b6000602082019050611c1760008301846119a6565b92915050565b60006020820190508181036000830152611c3781846119b5565b905092915050565b60006020820190508181036000830152611c58816119ee565b9050919050565b60006020820190508181036000830152611c7881611a11565b9050919050565b60006020820190508181036000830152611c9881611a34565b9050919050565b60006020820190508181036000830152611cb881611a57565b9050919050565b60006020820190508181036000830152611cd881611a7a565b9050919050565b60006020820190508181036000830152611cf881611a9d565b9050919050565b60006020820190508181036000830152611d1881611ac0565b9050919050565b60006020820190508181036000830152611d3881611ae3565b9050919050565b60006020820190508181036000830152611d5881611b06565b9050919050565b60006020820190508181036000830152611d7881611b29565b9050919050565b60006020820190508181036000830152611d9881611b4c565b9050919050565b60006020820190508181036000830152611db881611b6f565b9050919050565b60006020820190508181036000830152611dd881611b92565b9050919050565b60006020820190508181036000830152611df881611bb5565b9050919050565b6000602082019050611e146000830184611bd8565b92915050565b600081519050919050565b600082825260208201905092915050565b6000611e4182611f05565b9150611e4c83611f05565b9250827fffffffffffffffffffffffffffffffffffffffffffffffffffffffffffffffff03821115611e8157611e80611fbd565b5b828201905092915050565b6000611e9782611f05565b9150611ea283611f05565b925082821015611eb557611eb4611fbd565b5b828203905092915050565b6000611ecb82611ee5565b9050919050565b6000819050611ee082612299565b919050565b600073ffffffffffffffffffffffffffffffffffffffff82169050919050565b6000819050919050565b600060ff82169050919050565b6000611f2782611ed2565b9050919050565b60005b83811015611f4c578082015181840152602081019050611f31565b83811115611f5b576000848401525b50505050565b60006002820490506001821680611f7957607f821691505b60208210811415611f8d57611f8c61201b565b5b50919050565b6000611f9e82611f0f565b915060ff821415611fb257611fb1611fbd565b5b600182019050919050565b7f4e487b7100000000000000000000000000000000000000000000000000000000600052601160045260246000fd5b7f4e487b7100000000000000000000000000000000000000000000000000000000600052602160045260246000fd5b7f4e487b7100000000000000000000000000000000000000000000000000000000600052602260045260246000fd5b6000601f19601f8301169050919050565b7f70726f6a65637453746172744572726f72000000000000000000000000000000600082015250565b7f70726f6a65637453746167654578636565644c696d69744572726f7200000000600082015250565b7f696e73756666696369656e7446756e644572726f720000000000000000000000600082015250565b7f70726f6a65637453746f704572726f7200000000000000000000000000000000600082015250565b7f73756666696369656e7446756e644572726f7200000000000000000000000000600082015250565b7f70726f6a65637453746167654e6f744578636565644c696d69744572726f7200600082015250565b7f7a65726f416464726573734572726f7200000000000000000000000000000000600082015250565b7f756e417574686f72697a65644572726f72000000000000000000000000000000600082015250565b7f646561646c696e654e6f7445786365656465644572726f720000000000000000600082015250565b7f70726f6a6563744163746976654572726f720000000000000000000000000000600082015250565b7f70726f6a6563744e6f744163746976654572726f720000000000000000000000600082015250565b7f6e6f7441446f6e6f724572726f72000000000000000000000000000000000000600082015250565b7f6f6e6c7941646d696e4572726f72000000000000000000000000000000000000600082015250565b7f6465616c696e654572726f720000000000000000000000000000000000000000600082015250565b600381106122aa576122a9611fec565b5b50565b6122b681611f05565b81146122c157600080fd5b5056fea26469706673582212201d642f7748c2567659e6d726ac26f5bcde1846a0869a971a94b2e58d121a029764736f6c63430008040033",
  "linkReferences": {},
  "deployedLinkReferences": {}
}