{
  "_format": "hh-sol-artifact-1",
  "contractName": "Project",
  "sourceName": "contracts/Project.sol",
  "abi": [
    {
      "inputs": [
        {
          "internalType": "address payable",
          "name": "owner",
          "type": "address"
        },
        {
          "internalType": "string",
          "name": "dataURI",
          "type": "string"
        },
        {
          "internalType": "uint256[]",
          "name": "deadlines",
          "type": "uint256[]"
        },
        {
          "internalType": "uint256[]",
          "name": "targetAmounts",
          "type": "uint256[]"
        },
        {
          "internalType": "address payable[]",
          "name": "walletAddresses",
          "type": "address[]"
        }
      ],
      "stateMutability": "nonpayable",
      "type": "constructor"
    },
    {
      "inputs": [],
      "name": "_availableAmount",
      "outputs": [
        {
          "internalType": "uint256",
          "name": "",
          "type": "uint256"
        }
      ],
      "stateMutability": "view",
      "type": "function"
    },
    {
      "inputs": [],
      "name": "_dataURI",
      "outputs": [
        {
          "internalType": "string",
          "name": "",
          "type": "string"
        }
      ],
      "stateMutability": "view",
      "type": "function"
    },
    {
      "inputs": [],
      "name": "_deadline",
      "outputs": [
        {
          "internalType": "uint256",
          "name": "",
          "type": "uint256"
        }
      ],
      "stateMutability": "view",
      "type": "function"
    },
    {
      "inputs": [],
      "name": "_owner",
      "outputs": [
        {
          "internalType": "address payable",
          "name": "",
          "type": "address"
        }
      ],
      "stateMutability": "view",
      "type": "function"
    },
    {
      "inputs": [
        {
          "internalType": "uint256",
          "name": "",
          "type": "uint256"
        }
      ],
      "name": "_progressURIs",
      "outputs": [
        {
          "internalType": "string",
          "name": "",
          "type": "string"
        }
      ],
      "stateMutability": "view",
      "type": "function"
    },
    {
      "inputs": [],
      "name": "_projectState",
      "outputs": [
        {
          "internalType": "enum Project.ProjectState",
          "name": "",
          "type": "uint8"
        }
      ],
      "stateMutability": "view",
      "type": "function"
    },
    {
      "inputs": [],
      "name": "_totalRaised",
      "outputs": [
        {
          "internalType": "uint256",
          "name": "",
          "type": "uint256"
        }
      ],
      "stateMutability": "view",
      "type": "function"
    },
    {
      "inputs": [],
      "name": "_totalTargetAmount",
      "outputs": [
        {
          "internalType": "uint256",
          "name": "",
          "type": "uint256"
        }
      ],
      "stateMutability": "view",
      "type": "function"
    },
    {
      "inputs": [
        {
          "internalType": "string",
          "name": "uri",
          "type": "string"
        }
      ],
      "name": "addProgress",
      "outputs": [],
      "stateMutability": "nonpayable",
      "type": "function"
    },
    {
      "inputs": [],
      "name": "claimExcess",
      "outputs": [],
      "stateMutability": "payable",
      "type": "function"
    },
    {
      "inputs": [],
      "name": "donate",
      "outputs": [],
      "stateMutability": "payable",
      "type": "function"
    },
    {
      "inputs": [],
      "name": "forceWithdraw",
      "outputs": [],
      "stateMutability": "payable",
      "type": "function"
    },
    {
      "inputs": [],
      "name": "refund",
      "outputs": [],
      "stateMutability": "payable",
      "type": "function"
    },
    {
      "inputs": [],
      "name": "start",
      "outputs": [],
      "stateMutability": "nonpayable",
      "type": "function"
    },
    {
      "inputs": [],
      "name": "stop",
      "outputs": [],
      "stateMutability": "nonpayable",
      "type": "function"
    },
    {
      "inputs": [],
      "name": "undoLastProgress",
      "outputs": [],
      "stateMutability": "nonpayable",
      "type": "function"
    },
    {
      "inputs": [],
      "name": "withdraw",
      "outputs": [],
      "stateMutability": "payable",
      "type": "function"
    },
    {
      "stateMutability": "payable",
      "type": "receive"
    }
  ],
  "bytecode": "0x60806040523480156200001157600080fd5b5060405162002e0938038062002e09833981810160405281019062000037919062000696565b84600460006101000a81548173ffffffffffffffffffffffffffffffffffffffff021916908373ffffffffffffffffffffffffffffffffffffffff1602179055506000600360006101000a81548160ff021916908360ff1602179055508360099080519060200190620000ac92919062000402565b5033600360046101000a81548173ffffffffffffffffffffffffffffffffffffffff021916908373ffffffffffffffffffffffffffffffffffffffff160217905550620001018282856200010c60201b60201c565b505050505062000b42565b600083519050825160ff168160ff161480156200012f5750815160ff168160ff16145b62000171576040517f08c379a00000000000000000000000000000000000000000000000000000000081526004016200016890620007a3565b60405180910390fd5b600080600090505b8260ff168160ff16101562000325576000868260ff1681518110620001c7577f4e487b7100000000000000000000000000000000000000000000000000000000600052603260045260246000fd5b602002602001015190506040518060600160405280828152602001868460ff16815181106200021f577f4e487b7100000000000000000000000000000000000000000000000000000000600052603260045260246000fd5b60200260200101518152602001878460ff168151811062000269577f4e487b7100000000000000000000000000000000000000000000000000000000600052603260045260246000fd5b602002602001015173ffffffffffffffffffffffffffffffffffffffff16815250600260008460ff168152602001908152602001600020600082015181600001556020820151816001015560408201518160020160006101000a81548173ffffffffffffffffffffffffffffffffffffffff021916908373ffffffffffffffffffffffffffffffffffffffff16021790555090505080836200030c919062000893565b92505080806200031c9062000a18565b91505062000179565b50600182620003359190620008f0565b600360016101000a81548160ff021916908360ff1602179055508060078190555062000367836200037460201b60201c565b6008819055505050505050565b6000806000905060005b83518160ff161015620003f8576000848260ff1681518110620003ca577f4e487b7100000000000000000000000000000000000000000000000000000000600052603260045260246000fd5b6020026020010151905082811115620003e1578092505b508080620003ef9062000a18565b9150506200037e565b5080915050919050565b8280546200041090620009ac565b90600052602060002090601f01602090048101928262000434576000855562000480565b82601f106200044f57805160ff191683800117855562000480565b8280016001018555821562000480579182015b828111156200047f57825182559160200191906001019062000462565b5b5090506200048f919062000493565b5090565b5b80821115620004ae57600081600090555060010162000494565b5090565b6000620004c9620004c384620007ee565b620007c5565b90508083825260208201905082856020860282011115620004e957600080fd5b60005b858110156200051d5781620005028882620005e1565b845260208401935060208301925050600181019050620004ec565b5050509392505050565b60006200053e62000538846200081d565b620007c5565b905080838252602082019050828560208602820111156200055e57600080fd5b60005b858110156200059257816200057788826200067f565b84526020840193506020830192505060018101905062000561565b5050509392505050565b6000620005b3620005ad846200084c565b620007c5565b905082815260208101848484011115620005cc57600080fd5b620005d984828562000976565b509392505050565b600081519050620005f28162000b0e565b92915050565b600082601f8301126200060a57600080fd5b81516200061c848260208601620004b2565b91505092915050565b600082601f8301126200063757600080fd5b81516200064984826020860162000527565b91505092915050565b600082601f8301126200066457600080fd5b8151620006768482602086016200059c565b91505092915050565b600081519050620006908162000b28565b92915050565b600080600080600060a08688031215620006af57600080fd5b6000620006bf88828901620005e1565b955050602086015167ffffffffffffffff811115620006dd57600080fd5b620006eb8882890162000652565b945050604086015167ffffffffffffffff8111156200070957600080fd5b620007178882890162000625565b935050606086015167ffffffffffffffff8111156200073557600080fd5b620007438882890162000625565b925050608086015167ffffffffffffffff8111156200076157600080fd5b6200076f88828901620005f8565b9150509295509295909350565b60006200078b60198362000882565b9150620007988262000ae5565b602082019050919050565b60006020820190508181036000830152620007be816200077c565b9050919050565b6000620007d1620007e4565b9050620007df8282620009e2565b919050565b6000604051905090565b600067ffffffffffffffff8211156200080c576200080b62000aa5565b5b602082029050602081019050919050565b600067ffffffffffffffff8211156200083b576200083a62000aa5565b5b602082029050602081019050919050565b600067ffffffffffffffff8211156200086a576200086962000aa5565b5b620008758262000ad4565b9050602081019050919050565b600082825260208201905092915050565b6000620008a0826200095f565b9150620008ad836200095f565b9250827fffffffffffffffffffffffffffffffffffffffffffffffffffffffffffffffff03821115620008e557620008e462000a47565b5b828201905092915050565b6000620008fd8262000969565b91506200090a8362000969565b92508282101562000920576200091f62000a47565b5b828203905092915050565b600062000938826200093f565b9050919050565b600073ffffffffffffffffffffffffffffffffffffffff82169050919050565b6000819050919050565b600060ff82169050919050565b60005b838110156200099657808201518184015260208101905062000979565b83811115620009a6576000848401525b50505050565b60006002820490506001821680620009c557607f821691505b60208210811415620009dc57620009db62000a76565b5b50919050565b620009ed8262000ad4565b810181811067ffffffffffffffff8211171562000a0f5762000a0e62000aa5565b5b80604052505050565b600062000a258262000969565b915060ff82141562000a3c5762000a3b62000a47565b5b600182019050919050565b7f4e487b7100000000000000000000000000000000000000000000000000000000600052601160045260246000fd5b7f4e487b7100000000000000000000000000000000000000000000000000000000600052602260045260246000fd5b7f4e487b7100000000000000000000000000000000000000000000000000000000600052604160045260246000fd5b6000601f19601f8301169050919050565b7f7374616765734c656e6774684d69736d617463684572726f7200000000000000600082015250565b62000b19816200092b565b811462000b2557600080fd5b50565b62000b33816200095f565b811462000b3f57600080fd5b50565b6122b78062000b526000396000f3fe6080604052600436106101025760003560e01c80637be80b3911610095578063b2bdfa7b11610064578063b2bdfa7b14610280578063be9a6555146102ab578063c12d51ad146102c2578063c9cbb9bf146102eb578063ed88c68e1461031657610111565b80637be80b391461022a5780638d78bf7e146102345780639e9c8b5a1461023e578063aea7bd2b1461025557610111565b80633ccfd60b116100d15780633ccfd60b146101ae57806351a7c985146101b8578063590e1ae3146101e3578063706308d7146101ed57610111565b806307da68f5146101165780631b8db7741461012d5780632fe8430c14610158578063324e1f511461018357610111565b366101115761010f610320565b005b600080fd5b34801561012257600080fd5b5061012b6104c2565b005b34801561013957600080fd5b506101426106c5565b60405161014f9190611dbc565b60405180910390f35b34801561016457600080fd5b5061016d6106cb565b60405161017a9190611dbc565b60405180910390f35b34801561018f57600080fd5b506101986106d1565b6040516101a59190611dbc565b60405180910390f35b6101b66106d7565b005b3480156101c457600080fd5b506101cd6109d3565b6040516101da9190611dbc565b60405180910390f35b6101eb6109d9565b005b3480156101f957600080fd5b50610214600480360381019061020f919061192b565b610d00565b6040516102219190611bda565b60405180910390f35b610232610dac565b005b61023c6110af565b005b34801561024a57600080fd5b50610253611373565b005b34801561026157600080fd5b5061026a61145b565b6040516102779190611bbf565b60405180910390f35b34801561028c57600080fd5b5061029561146e565b6040516102a29190611ba4565b60405180910390f35b3480156102b757600080fd5b506102c0611494565b005b3480156102ce57600080fd5b506102e960048036038101906102e491906118e6565b611644565b005b3480156102f757600080fd5b50610300611716565b60405161030d9190611bda565b60405180910390f35b61031e610320565b005b6000600281111561035a577f4e487b7100000000000000000000000000000000000000000000000000000000600052602160045260246000fd5b600360029054906101000a900460ff1660028111156103a2577f4e487b7100000000000000000000000000000000000000000000000000000000600052602160045260246000fd5b146103e2576040517f08c379a00000000000000000000000000000000000000000000000000000000081526004016103d990611d3c565b60405180910390fd5b4260085411806103f457506000600854145b610433576040517f08c379a000000000000000000000000000000000000000000000000000000000815260040161042a90611d9c565b60405180910390fd5b6000349050806006600082825461044a9190611df3565b9250508190555080600560008282546104639190611df3565b92505081905550806000803373ffffffffffffffffffffffffffffffffffffffff1673ffffffffffffffffffffffffffffffffffffffff16815260200190815260200160002060008282546104b89190611df3565b9250508190555050565b600360049054906101000a900473ffffffffffffffffffffffffffffffffffffffff1673ffffffffffffffffffffffffffffffffffffffff163373ffffffffffffffffffffffffffffffffffffffff1614610552576040517f08c379a000000000000000000000000000000000000000000000000000000000815260040161054990611cdc565b60405180910390fd5b60028081111561058b577f4e487b7100000000000000000000000000000000000000000000000000000000600052602160045260246000fd5b600360029054906101000a900460ff1660028111156105d3577f4e487b7100000000000000000000000000000000000000000000000000000000600052602160045260246000fd5b1415610614576040517f08c379a000000000000000000000000000000000000000000000000000000000815260040161060b90611c5c565b60405180910390fd5b600360029054906101000a900460ff166003806101000a81548160ff0219169083600281111561066d577f4e487b7100000000000000000000000000000000000000000000000000000000600052602160045260246000fd5b02179055506002600360026101000a81548160ff021916908360028111156106be577f4e487b7100000000000000000000000000000000000000000000000000000000600052602160045260246000fd5b0217905550565b60085481565b60075481565b60055481565b60006002811115610711577f4e487b7100000000000000000000000000000000000000000000000000000000600052602160045260246000fd5b600360029054906101000a900460ff166002811115610759577f4e487b7100000000000000000000000000000000000000000000000000000000600052602160045260246000fd5b14610799576040517f08c379a000000000000000000000000000000000000000000000000000000000815260040161079090611d3c565b60405180910390fd5b600360019054906101000a900460ff1660ff16600360009054906101000a900460ff1660ff161115610800576040517f08c379a00000000000000000000000000000000000000000000000000000000081526004016107f790611c1c565b60405180910390fd5b600060026000600360009054906101000a900460ff1660ff16815260200190815260200160002060405180606001604052908160008201548152602001600182015481526020016002820160009054906101000a900473ffffffffffffffffffffffffffffffffffffffff1673ffffffffffffffffffffffffffffffffffffffff1673ffffffffffffffffffffffffffffffffffffffff1681525050905080602001514210156108e5576040517f08c379a00000000000000000000000000000000000000000000000000000000081526004016108dc90611cfc565b60405180910390fd5b600081600001519050806005541015610933576040517f08c379a000000000000000000000000000000000000000000000000000000000815260040161092a90611c3c565b60405180910390fd5b80600560008282546109459190611e49565b925050819055506003600081819054906101000a900460ff168092919061096b90611f50565b91906101000a81548160ff021916908360ff16021790555050816040015173ffffffffffffffffffffffffffffffffffffffff166108fc829081150290604051600060405180830381858888f193505050501580156109ce573d6000803e3d6000fd5b505050565b60065481565b60006002811115610a13577f4e487b7100000000000000000000000000000000000000000000000000000000600052602160045260246000fd5b600360029054906101000a900460ff166002811115610a5b577f4e487b7100000000000000000000000000000000000000000000000000000000600052602160045260246000fd5b1415610a9c576040517f08c379a0000000000000000000000000000000000000000000000000000000008152600401610a9390611d1c565b60405180910390fd5b6000339050600073ffffffffffffffffffffffffffffffffffffffff168173ffffffffffffffffffffffffffffffffffffffff161415610b11576040517f08c379a0000000000000000000000000000000000000000000000000000000008152600401610b0890611cbc565b60405180910390fd5b60008060008373ffffffffffffffffffffffffffffffffffffffff1673ffffffffffffffffffffffffffffffffffffffff16815260200190815260200160002054905060008111610b97576040517f08c379a0000000000000000000000000000000000000000000000000000000008152600401610b8e90611d5c565b60405180910390fd5b600060055411610bdc576040517f08c379a0000000000000000000000000000000000000000000000000000000008152600401610bd390611c7c565b60405180910390fd5b6000819050600554821115610c54576005546000808573ffffffffffffffffffffffffffffffffffffffff1673ffffffffffffffffffffffffffffffffffffffff1681526020019081526020016000206000828254610c3b9190611e49565b9250508190555060055490506000600581905550610cb2565b60008060008573ffffffffffffffffffffffffffffffffffffffff1673ffffffffffffffffffffffffffffffffffffffff168152602001908152602001600020819055508160056000828254610caa9190611e49565b925050819055505b8273ffffffffffffffffffffffffffffffffffffffff166108fc6005549081150290604051600060405180830381858888f19350505050158015610cfa573d6000803e3d6000fd5b50505050565b60018181548110610d1057600080fd5b906000526020600020016000915090508054610d2b90611f1e565b80601f0160208091040260200160405190810160405280929190818152602001828054610d5790611f1e565b8015610da45780601f10610d7957610100808354040283529160200191610da4565b820191906000526020600020905b815481529060010190602001808311610d8757829003601f168201915b505050505081565b60006002811115610de6577f4e487b7100000000000000000000000000000000000000000000000000000000600052602160045260246000fd5b600360029054906101000a900460ff166002811115610e2e577f4e487b7100000000000000000000000000000000000000000000000000000000600052602160045260246000fd5b14610e6e576040517f08c379a0000000000000000000000000000000000000000000000000000000008152600401610e6590611d3c565b60405180910390fd5b600360019054906101000a900460ff1660ff16600360009054906101000a900460ff1660ff161115610ed5576040517f08c379a0000000000000000000000000000000000000000000000000000000008152600401610ecc90611c1c565b60405180910390fd5b600854421015610f1a576040517f08c379a0000000000000000000000000000000000000000000000000000000008152600401610f1190611cfc565b60405180910390fd5b600060026000600360009054906101000a900460ff1660ff16815260200190815260200160002060405180606001604052908160008201548152602001600182015481526020016002820160009054906101000a900473ffffffffffffffffffffffffffffffffffffffff1673ffffffffffffffffffffffffffffffffffffffff1673ffffffffffffffffffffffffffffffffffffffff168152505090506000816000015190508060055410611005576040517f08c379a0000000000000000000000000000000000000000000000000000000008152600401610ffc90611c7c565b60405180910390fd5b60006005819055506001600360026101000a81548160ff02191690836002811115611059577f4e487b7100000000000000000000000000000000000000000000000000000000600052602160045260246000fd5b0217905550816040015173ffffffffffffffffffffffffffffffffffffffff166108fc6005549081150290604051600060405180830381858888f193505050501580156110aa573d6000803e3d6000fd5b505050565b600060028111156110e9577f4e487b7100000000000000000000000000000000000000000000000000000000600052602160045260246000fd5b600360029054906101000a900460ff166002811115611131577f4e487b7100000000000000000000000000000000000000000000000000000000600052602160045260246000fd5b14611171576040517f08c379a000000000000000000000000000000000000000000000000000000000815260040161116890611d3c565b60405180910390fd5b3373ffffffffffffffffffffffffffffffffffffffff16600460009054906101000a900473ffffffffffffffffffffffffffffffffffffffff1673ffffffffffffffffffffffffffffffffffffffff1614611201576040517f08c379a00000000000000000000000000000000000000000000000000000000081526004016111f890611d7c565b60405180910390fd5b600360019054906101000a900460ff1660ff16600360009054906101000a900460ff1660ff1611611267576040517f08c379a000000000000000000000000000000000000000000000000000000000815260040161125e90611c9c565b60405180910390fd5b600754600654116112ad576040517f08c379a00000000000000000000000000000000000000000000000000000000081526004016112a490611c3c565b60405180910390fd5b60006005819055506001600360026101000a81548160ff02191690836002811115611301577f4e487b7100000000000000000000000000000000000000000000000000000000600052602160045260246000fd5b0217905550600460009054906101000a900473ffffffffffffffffffffffffffffffffffffffff1673ffffffffffffffffffffffffffffffffffffffff166108fc6005549081150290604051600060405180830381858888f19350505050158015611370573d6000803e3d6000fd5b50565b3373ffffffffffffffffffffffffffffffffffffffff16600460009054906101000a900473ffffffffffffffffffffffffffffffffffffffff1673ffffffffffffffffffffffffffffffffffffffff1614611403576040517f08c379a00000000000000000000000000000000000000000000000000000000081526004016113fa90611d7c565b60405180910390fd5b600180548061143b577f4e487b7100000000000000000000000000000000000000000000000000000000600052603160045260246000fd5b60019003818190600052602060002001600061145791906117a4565b9055565b600360029054906101000a900460ff1681565b600460009054906101000a900473ffffffffffffffffffffffffffffffffffffffff1681565b600360049054906101000a900473ffffffffffffffffffffffffffffffffffffffff1673ffffffffffffffffffffffffffffffffffffffff163373ffffffffffffffffffffffffffffffffffffffff1614611524576040517f08c379a000000000000000000000000000000000000000000000000000000000815260040161151b90611cdc565b60405180910390fd5b60028081111561155d577f4e487b7100000000000000000000000000000000000000000000000000000000600052602160045260246000fd5b600360029054906101000a900460ff1660028111156115a5577f4e487b7100000000000000000000000000000000000000000000000000000000600052602160045260246000fd5b146115e5576040517f08c379a00000000000000000000000000000000000000000000000000000000081526004016115dc90611bfc565b60405180910390fd5b60038054906101000a900460ff16600360026101000a81548160ff0219169083600281111561163d577f4e487b7100000000000000000000000000000000000000000000000000000000600052602160045260246000fd5b0217905550565b3373ffffffffffffffffffffffffffffffffffffffff16600460009054906101000a900473ffffffffffffffffffffffffffffffffffffffff1673ffffffffffffffffffffffffffffffffffffffff16146116d4576040517f08c379a00000000000000000000000000000000000000000000000000000000081526004016116cb90611d7c565b60405180910390fd5b60018282909180600181540180825580915050600190039060005260206000200160009091929091929091929091925091906117119291906117e4565b505050565b6009805461172390611f1e565b80601f016020809104026020016040519081016040528092919081815260200182805461174f90611f1e565b801561179c5780601f106117715761010080835404028352916020019161179c565b820191906000526020600020905b81548152906001019060200180831161177f57829003601f168201915b505050505081565b5080546117b090611f1e565b6000825580601f106117c257506117e1565b601f0160209004906000526020600020908101906117e0919061186a565b5b50565b8280546117f090611f1e565b90600052602060002090601f0160209004810192826118125760008555611859565b82601f1061182b57803560ff1916838001178555611859565b82800160010185558215611859579182015b8281111561185857823582559160200191906001019061183d565b5b509050611866919061186a565b5090565b5b8082111561188357600081600090555060010161186b565b5090565b60008083601f84011261189957600080fd5b8235905067ffffffffffffffff8111156118b257600080fd5b6020830191508360018202830111156118ca57600080fd5b9250929050565b6000813590506118e08161226a565b92915050565b600080602083850312156118f957600080fd5b600083013567ffffffffffffffff81111561191357600080fd5b61191f85828601611887565b92509250509250929050565b60006020828403121561193d57600080fd5b600061194b848285016118d1565b91505092915050565b61195d81611e7d565b82525050565b61196c81611ed9565b82525050565b600061197d82611dd7565b6119878185611de2565b9350611997818560208601611eeb565b6119a081612007565b840191505092915050565b60006119b8601183611de2565b91506119c382612018565b602082019050919050565b60006119db601c83611de2565b91506119e682612041565b602082019050919050565b60006119fe601583611de2565b9150611a098261206a565b602082019050919050565b6000611a21601083611de2565b9150611a2c82612093565b602082019050919050565b6000611a44601383611de2565b9150611a4f826120bc565b602082019050919050565b6000611a67601f83611de2565b9150611a72826120e5565b602082019050919050565b6000611a8a601083611de2565b9150611a958261210e565b602082019050919050565b6000611aad601183611de2565b9150611ab882612137565b602082019050919050565b6000611ad0601883611de2565b9150611adb82612160565b602082019050919050565b6000611af3601283611de2565b9150611afe82612189565b602082019050919050565b6000611b16601583611de2565b9150611b21826121b2565b602082019050919050565b6000611b39600e83611de2565b9150611b44826121db565b602082019050919050565b6000611b5c600e83611de2565b9150611b6782612204565b602082019050919050565b6000611b7f600c83611de2565b9150611b8a8261222d565b602082019050919050565b611b9e81611ec2565b82525050565b6000602082019050611bb96000830184611954565b92915050565b6000602082019050611bd46000830184611963565b92915050565b60006020820190508181036000830152611bf48184611972565b905092915050565b60006020820190508181036000830152611c15816119ab565b9050919050565b60006020820190508181036000830152611c35816119ce565b9050919050565b60006020820190508181036000830152611c55816119f1565b9050919050565b60006020820190508181036000830152611c7581611a14565b9050919050565b60006020820190508181036000830152611c9581611a37565b9050919050565b60006020820190508181036000830152611cb581611a5a565b9050919050565b60006020820190508181036000830152611cd581611a7d565b9050919050565b60006020820190508181036000830152611cf581611aa0565b9050919050565b60006020820190508181036000830152611d1581611ac3565b9050919050565b60006020820190508181036000830152611d3581611ae6565b9050919050565b60006020820190508181036000830152611d5581611b09565b9050919050565b60006020820190508181036000830152611d7581611b2c565b9050919050565b60006020820190508181036000830152611d9581611b4f565b9050919050565b60006020820190508181036000830152611db581611b72565b9050919050565b6000602082019050611dd16000830184611b95565b92915050565b600081519050919050565b600082825260208201905092915050565b6000611dfe82611ec2565b9150611e0983611ec2565b9250827fffffffffffffffffffffffffffffffffffffffffffffffffffffffffffffffff03821115611e3e57611e3d611f7a565b5b828201905092915050565b6000611e5482611ec2565b9150611e5f83611ec2565b925082821015611e7257611e71611f7a565b5b828203905092915050565b6000611e8882611ea2565b9050919050565b6000819050611e9d82612256565b919050565b600073ffffffffffffffffffffffffffffffffffffffff82169050919050565b6000819050919050565b600060ff82169050919050565b6000611ee482611e8f565b9050919050565b60005b83811015611f09578082015181840152602081019050611eee565b83811115611f18576000848401525b50505050565b60006002820490506001821680611f3657607f821691505b60208210811415611f4a57611f49611fd8565b5b50919050565b6000611f5b82611ecc565b915060ff821415611f6f57611f6e611f7a565b5b600182019050919050565b7f4e487b7100000000000000000000000000000000000000000000000000000000600052601160045260246000fd5b7f4e487b7100000000000000000000000000000000000000000000000000000000600052602160045260246000fd5b7f4e487b7100000000000000000000000000000000000000000000000000000000600052602260045260246000fd5b6000601f19601f8301169050919050565b7f70726f6a65637453746172744572726f72000000000000000000000000000000600082015250565b7f70726f6a65637453746167654578636565644c696d69744572726f7200000000600082015250565b7f696e73756666696369656e7446756e644572726f720000000000000000000000600082015250565b7f70726f6a65637453746f704572726f7200000000000000000000000000000000600082015250565b7f73756666696369656e7446756e644572726f7200000000000000000000000000600082015250565b7f70726f6a65637453746167654e6f744578636565644c696d69744572726f7200600082015250565b7f7a65726f416464726573734572726f7200000000000000000000000000000000600082015250565b7f756e417574686f72697a65644572726f72000000000000000000000000000000600082015250565b7f646561646c696e654e6f7445786365656465644572726f720000000000000000600082015250565b7f70726f6a6563744163746976654572726f720000000000000000000000000000600082015250565b7f70726f6a6563744e6f744163746976654572726f720000000000000000000000600082015250565b7f6e6f7441446f6e6f724572726f72000000000000000000000000000000000000600082015250565b7f6f6e6c7941646d696e4572726f72000000000000000000000000000000000000600082015250565b7f6465616c696e654572726f720000000000000000000000000000000000000000600082015250565b6003811061226757612266611fa9565b5b50565b61227381611ec2565b811461227e57600080fd5b5056fea2646970667358221220239ea9b4e5476d89ad86984b1f3dcb1950a72b9412b2b66dbd037cf314fd521464736f6c63430008040033",
  "linkReferences": {},
  "deployedLinkReferences": {}
}